{
  "abi": [
    {
      "inputs": [
        {
          "internalType": "string[]",
          "name": "proposalNames",
          "type": "string[]"
        }
      ],
      "stateMutability": "nonpayable",
      "type": "constructor"
    },
    {
      "inputs": [
        {
          "internalType": "uint256",
          "name": "index",
          "type": "uint256"
        }
      ],
      "name": "CandidateVoteNumber",
      "outputs": [
        {
          "internalType": "uint256",
          "name": "",
          "type": "uint256"
        }
      ],
      "stateMutability": "view",
      "type": "function"
    },
    {
      "inputs": [],
      "name": "ChairPerson",
      "outputs": [
        {
          "internalType": "address",
          "name": "",
          "type": "address"
        }
      ],
      "stateMutability": "view",
      "type": "function"
    },
    {
      "inputs": [
        {
          "internalType": "address",
          "name": "me",
          "type": "address"
        }
      ],
      "name": "VotersDetail",
      "outputs": [
        {
          "components": [
            {
              "internalType": "uint256",
              "name": "weight",
              "type": "uint256"
            },
            {
              "internalType": "bool",
              "name": "voted",
              "type": "bool"
            },
            {
              "internalType": "address",
              "name": "delegate",
              "type": "address"
            },
            {
              "internalType": "uint256",
              "name": "vote",
              "type": "uint256"
            }
          ],
          "internalType": "struct Ballot.Voter",
          "name": "detail",
          "type": "tuple"
        }
      ],
      "stateMutability": "view",
      "type": "function"
    },
    {
      "inputs": [
        {
          "internalType": "address",
          "name": "to",
          "type": "address"
        }
      ],
      "name": "delegate",
      "outputs": [],
      "stateMutability": "nonpayable",
      "type": "function"
    },
    {
      "inputs": [
        {
          "internalType": "address",
          "name": "voter",
          "type": "address"
        }
      ],
      "name": "giveRightToVote",
      "outputs": [],
      "stateMutability": "nonpayable",
      "type": "function"
    },
    {
      "inputs": [
        {
          "internalType": "uint256",
          "name": "",
          "type": "uint256"
        }
      ],
      "name": "s_proposals",
      "outputs": [
        {
          "internalType": "string",
          "name": "name",
          "type": "string"
        },
        {
          "internalType": "uint256",
          "name": "voteCount",
          "type": "uint256"
        }
      ],
      "stateMutability": "view",
      "type": "function"
    },
    {
      "inputs": [
        {
          "internalType": "uint256",
          "name": "proposal",
          "type": "uint256"
        }
      ],
      "name": "vote",
      "outputs": [],
      "stateMutability": "nonpayable",
      "type": "function"
    },
    {
      "inputs": [
        {
          "internalType": "address",
          "name": "",
          "type": "address"
        }
      ],
      "name": "voters",
      "outputs": [
        {
          "internalType": "uint256",
          "name": "weight",
          "type": "uint256"
        },
        {
          "internalType": "bool",
          "name": "voted",
          "type": "bool"
        },
        {
          "internalType": "address",
          "name": "delegate",
          "type": "address"
        },
        {
          "internalType": "uint256",
          "name": "vote",
          "type": "uint256"
        }
      ],
      "stateMutability": "view",
      "type": "function"
    },
    {
      "inputs": [],
      "name": "winnerName",
      "outputs": [
        {
          "internalType": "string",
          "name": "winnerName_",
          "type": "string"
        }
      ],
      "stateMutability": "view",
      "type": "function"
    },
    {
      "inputs": [],
      "name": "winningProposal",
      "outputs": [
        {
          "internalType": "uint256",
          "name": "winningProposal_",
          "type": "uint256"
        }
      ],
      "stateMutability": "view",
      "type": "function"
    }
  ],
  "bytecode": {
    "object": "0x60a06040523480156200001157600080fd5b506040516200100138038062001001833981016040819052620000349162000127565b3360808190526000908152602081905260408120600190555b8151811015620000d657600160405180604001604052808484815181106200007957620000796200026b565b60209081029190910181015182526000918101829052835460018101855593825290208151919260020201908190620000b3908262000310565b506020820151816001015550508080620000cd90620003dc565b9150506200004d565b505062000404565b634e487b7160e01b600052604160045260246000fd5b604051601f8201601f191681016001600160401b03811182821017156200011f576200011f620000de565b604052919050565b600060208083850312156200013b57600080fd5b82516001600160401b03808211156200015357600080fd5b8185019150601f86818401126200016957600080fd5b8251828111156200017e576200017e620000de565b8060051b6200018f868201620000f4565b918252848101860191868101908a841115620001aa57600080fd5b87870192505b838310156200025d57825186811115620001ca5760008081fd5b8701603f81018c13620001dd5760008081fd5b8881015187811115620001f457620001f4620000de565b62000207818801601f19168b01620000f4565b81815260408e818486010111156200021f5760008081fd5b60005b838110156200023f578481018201518382018e01528c0162000222565b505060009181018b01919091528352509187019190870190620001b0565b9a9950505050505050505050565b634e487b7160e01b600052603260045260246000fd5b600181811c908216806200029657607f821691505b602082108103620002b757634e487b7160e01b600052602260045260246000fd5b50919050565b601f8211156200030b57600081815260208120601f850160051c81016020861015620002e65750805b601f850160051c820191505b818110156200030757828155600101620002f2565b5050505b505050565b81516001600160401b038111156200032c576200032c620000de565b62000344816200033d845462000281565b84620002bd565b602080601f8311600181146200037c5760008415620003635750858301515b600019600386901b1c1916600185901b17855562000307565b600085815260208120601f198616915b82811015620003ad578886015182559484019460019091019084016200038c565b5085821015620003cc5787850151600019600388901b60f8161c191681555b5050505050600190811b01905550565b600060018201620003fd57634e487b7160e01b600052601160045260246000fd5b5060010190565b608051610bdb620004266000396000818160c5015261074a0152610bdb6000f3fe608060405234801561001057600080fd5b506004361061009e5760003560e01c806380b4f23b1161006657806380b4f23b146101e55780639e7b8d61146101f8578063a3ec138d1461020b578063a7e9df561461027d578063e2ba53f01461029e57600080fd5b80630121b93f146100a35780632346b791146100b8578063503a0b66146100f45780635c19a95c146101bc578063609ff1bd146101cf575b600080fd5b6100b66100b1366004610a49565b6102b3565b005b6040516001600160a01b037f00000000000000000000000000000000000000000000000000000000000000001681526020015b60405180910390f35b61017e610102366004610a62565b604080516080810182526000808252602082018190529181018290526060810191909152506001600160a01b0390811660009081526020818152604091829020825160808101845281548152600182015460ff811615159382019390935261010090920490931691810191909152600290910154606082015290565b6040516100eb9190815181526020808301511515908201526040808301516001600160a01b0316908201526060918201519181019190915260800190565b6100b66101ca366004610a62565b6103b2565b6101d7610694565b6040519081526020016100eb565b6101d76101f3366004610a49565b610711565b6100b6610206366004610a62565b61073f565b61024e610219366004610a62565b600060208190529081526040902080546001820154600290920154909160ff8116916101009091046001600160a01b03169084565b6040516100eb949392919093845291151560208401526001600160a01b03166040830152606082015260800190565b61029061028b366004610a49565b6108d2565b6040516100eb929190610ad8565b6102a661098e565b6040516100eb9190610afa565b336000908152602081905260408120805490910361030f5760405162461bcd60e51b8152602060048201526014602482015273486173206e6f20726967687420746f20766f746560601b60448201526064015b60405180910390fd5b600181015460ff161561035c5760405162461bcd60e51b8152602060048201526015602482015274416c726561647920766f7465642e202d2d566f746560581b6044820152606401610306565b6001818101805460ff19168217905560028201839055815481549091908490811061038957610389610b0d565b906000526020600020906002020160010160008282546103a99190610b39565b90915550505050565b33600090815260208190526040812080549091036104315760405162461bcd60e51b815260206004820152603660248201527f43616e6e6f742047697665206f757420766f7465206265636175736520796f756044820152752068617665206e6f20726967687420746f20766f746560501b6064820152608401610306565b600181015460ff16156104865760405162461bcd60e51b815260206004820152601d60248201527f596f7520616c726561647920766f7465642e202d2d44656c65676174650000006044820152606401610306565b336001600160a01b038316036104de5760405162461bcd60e51b815260206004820152601e60248201527f53656c662d64656c65676174696f6e20697320646973616c6c6f7765642e00006044820152606401610306565b6001600160a01b0382811660009081526020819052604090206001015461010090041615610580576001600160a01b0391821660009081526020819052604090206001015461010090049091169033820361057b5760405162461bcd60e51b815260206004820152601960248201527f466f756e64206c6f6f7020696e2064656c65676174696f6e2e000000000000006044820152606401610306565b6104de565b6001600160a01b03821660009081526020819052604090208054600111156105ff5760405162461bcd60e51b815260206004820152602c60248201527f43616e6e6f742064656c656761746520746f206163636f756e7473207468617460448201526b2063616e6e6f7420766f746560a01b6064820152608401610306565b600182810180546001600160a81b0319166101006001600160a01b03871602178217905581015460ff1615610675578160000154600182600201548154811061064a5761064a610b0d565b9060005260206000209060020201600101600082825461066a9190610b39565b9091555061068f9050565b815481548290600090610689908490610b39565b90915550505b505050565b600080805b60015481101561070c5781600182815481106106b7576106b7610b0d565b90600052602060002090600202016001015411156106fa57600181815481106106e2576106e2610b0d565b90600052602060002090600202016001015491508092505b8061070481610b52565b915050610699565b505090565b60006001828154811061072657610726610b0d565b9060005260206000209060020201600101549050919050565b336001600160a01b037f000000000000000000000000000000000000000000000000000000000000000016146107ca5760405162461bcd60e51b815260206004820152602a60248201527f4f6e6c7920695f6368616972706572736f6e2063616e206769766520726967686044820152693a103a37903b37ba329760b11b6064820152608401610306565b6001600160a01b03811660009081526020819052604090206001015460ff16156108365760405162461bcd60e51b815260206004820152601860248201527f54686520766f74657220616c726561647920766f7465642e00000000000000006044820152606401610306565b6001600160a01b038116600090815260208190526040902054156108b55760405162461bcd60e51b815260206004820152603060248201527f596f752063616e6e6f7420626520676976656e20726967687420746f20766f7460448201526f65206d6f7265207468616e206f6e636560801b6064820152608401610306565b6001600160a01b0316600090815260208190526040902060019055565b600181815481106108e257600080fd5b906000526020600020906002020160009150905080600001805461090590610b6b565b80601f016020809104026020016040519081016040528092919081815260200182805461093190610b6b565b801561097e5780601f106109535761010080835404028352916020019161097e565b820191906000526020600020905b81548152906001019060200180831161096157829003601f168201915b5050505050908060010154905082565b6060600161099a610694565b815481106109aa576109aa610b0d565b906000526020600020906002020160000180546109c690610b6b565b80601f01602080910402602001604051908101604052809291908181526020018280546109f290610b6b565b8015610a3f5780601f10610a1457610100808354040283529160200191610a3f565b820191906000526020600020905b815481529060010190602001808311610a2257829003601f168201915b5050505050905090565b600060208284031215610a5b57600080fd5b5035919050565b600060208284031215610a7457600080fd5b81356001600160a01b0381168114610a8b57600080fd5b9392505050565b6000815180845260005b81811015610ab857602081850181015186830182015201610a9c565b506000602082860101526020601f19601f83011685010191505092915050565b604081526000610aeb6040830185610a92565b90508260208301529392505050565b602081526000610a8b6020830184610a92565b634e487b7160e01b600052603260045260246000fd5b634e487b7160e01b600052601160045260246000fd5b80820180821115610b4c57610b4c610b23565b92915050565b600060018201610b6457610b64610b23565b5060010190565b600181811c90821680610b7f57607f821691505b602082108103610b9f57634e487b7160e01b600052602260045260246000fd5b5091905056fea26469706673582212205df670b35575467e11150c92a71c857cbf668fe095624d6940f302b06e12e52d64736f6c63430008130033",
    "linkReferences": {}
  },
  "methodIdentifiers": {
    "CandidateVoteNumber(uint256)": "80b4f23b",
    "ChairPerson()": "2346b791",
    "VotersDetail(address)": "503a0b66",
    "delegate(address)": "5c19a95c",
    "giveRightToVote(address)": "9e7b8d61",
    "s_proposals(uint256)": "a7e9df56",
    "vote(uint256)": "0121b93f",
    "voters(address)": "a3ec138d",
    "winnerName()": "e2ba53f0",
    "winningProposal()": "609ff1bd"
  },
  "id": 20
}